{
  "contractName": "Chungus",
  "abi": [
    {
      "inputs": [],
      "payable": false,
      "stateMutability": "nonpayable",
      "type": "constructor"
    },
    {
      "constant": true,
      "inputs": [],
      "name": "totalSupply",
      "outputs": [
        {
          "internalType": "uint256",
          "name": "",
          "type": "uint256"
        }
      ],
      "payable": false,
      "stateMutability": "view",
      "type": "function"
    }
  ],
  "bytecode": "0x6080604052348015600f57600080fd5b506103e86000819055506084806100276000396000f3fe6080604052348015600f57600080fd5b506004361060285760003560e01c806318160ddd14602d575b600080fd5b60336049565b6040518082815260200191505060405180910390f35b6000548156fea265627a7a72315820b59b571573699d3234104d5688886d37715e699ac9673db36c9081301107d5d264736f6c63430005100032",
  "source": "pragma solidity ^0.5.0;\n\ncontract Chungus{\n    // constructor\n    uint public totalSupply;\n\n    constructor() public{\n        totalSupply = 1000;\n    }\n    // set the total number\n    // read the total number\n}",
  "sourcePath": "/home/puter/Projects/vishCoin/contracts/Chungus.sol",
  "compiler": {
    "name": "solc",
    "version": "0.5.16+commit.9c3226ce.Emscripten.clang"
  },
  "schemaVersion": "3.2.0",
  "updatedAt": "2020-06-18T10:09:46.012Z",
  "devdoc": {
    "methods": {}
  },
  "userdoc": {
    "methods": {}
  }
}